{
  "contractName": "MusicApp",
  "abi": [
    {
      "inputs": [],
      "stateMutability": "nonpayable",
      "type": "constructor"
    },
    {
      "inputs": [],
      "name": "MusicHasOwner",
      "type": "error"
    },
    {
      "inputs": [],
      "name": "MusicNotMatch",
      "type": "error"
    },
    {
      "inputs": [],
      "name": "OnlyOwner",
      "type": "error"
    },
    {
      "anonymous": false,
      "inputs": [
        {
          "indexed": false,
          "internalType": "address",
          "name": "from",
          "type": "address"
        },
        {
          "indexed": false,
          "internalType": "address",
          "name": "to",
          "type": "address"
        },
        {
          "indexed": false,
          "internalType": "uint256",
          "name": "amount",
          "type": "uint256"
        }
      ],
      "name": "Sent",
      "type": "event"
    },
    {
      "inputs": [],
      "name": "owner",
      "outputs": [
        {
          "internalType": "address payable",
          "name": "",
          "type": "address"
        }
      ],
      "stateMutability": "view",
      "type": "function"
    },
    {
      "inputs": [
        {
          "internalType": "bytes16",
          "name": "musicID",
          "type": "bytes16"
        },
        {
          "internalType": "uint256",
          "name": "musID",
          "type": "uint256"
        },
        {
          "internalType": "bytes32",
          "name": "proof",
          "type": "bytes32"
        },
        {
          "internalType": "address",
          "name": "musician",
          "type": "address"
        },
        {
          "internalType": "address payable",
          "name": "toReceiver",
          "type": "address"
        }
      ],
      "name": "purchaseMusic",
      "outputs": [],
      "stateMutability": "payable",
      "type": "function"
    },
    {
      "inputs": [
        {
          "internalType": "bytes16",
          "name": "musicID",
          "type": "bytes16"
        },
        {
          "internalType": "uint256",
          "name": "musID",
          "type": "uint256"
        },
        {
          "internalType": "bytes32",
          "name": "proof",
          "type": "bytes32"
        },
        {
          "internalType": "address",
          "name": "musician",
          "type": "address"
        },
        {
          "internalType": "address payable",
          "name": "toReceiver",
          "type": "address"
        }
      ],
      "name": "makeOffer",
      "outputs": [],
      "stateMutability": "payable",
      "type": "function"
    },
    {
      "inputs": [
        {
          "internalType": "bytes32",
          "name": "musicHash",
          "type": "bytes32"
        },
        {
          "internalType": "address payable",
          "name": "toReceive",
          "type": "address"
        }
      ],
      "name": "acceptOffer",
      "outputs": [],
      "stateMutability": "payable",
      "type": "function"
    },
    {
      "inputs": [
        {
          "internalType": "bytes32",
          "name": "musicHash",
          "type": "bytes32"
        },
        {
          "internalType": "address payable",
          "name": "toReceive",
          "type": "address"
        }
      ],
      "name": "rejectOffer",
      "outputs": [],
      "stateMutability": "payable",
      "type": "function"
    },
    {
      "inputs": [
        {
          "internalType": "address",
          "name": "newOwner",
          "type": "address"
        }
      ],
      "name": "transferOwnership",
      "outputs": [],
      "stateMutability": "nonpayable",
      "type": "function"
    },
    {
      "inputs": [],
      "name": "getMusicCount",
      "outputs": [
        {
          "internalType": "uint256",
          "name": "",
          "type": "uint256"
        }
      ],
      "stateMutability": "view",
      "type": "function"
    },
    {
      "inputs": [
        {
          "internalType": "uint256",
          "name": "index",
          "type": "uint256"
        }
      ],
      "name": "getMusicAtIndex",
      "outputs": [
        {
          "internalType": "bytes32",
          "name": "",
          "type": "bytes32"
        }
      ],
      "stateMutability": "view",
      "type": "function"
    },
    {
      "inputs": [
        {
          "internalType": "bytes32",
          "name": "musicHash",
          "type": "bytes32"
        }
      ],
      "name": "getMusicByHash",
      "outputs": [
        {
          "components": [
            {
              "internalType": "uint256",
              "name": "id",
              "type": "uint256"
            },
            {
              "internalType": "uint256",
              "name": "musicID",
              "type": "uint256"
            },
            {
              "internalType": "uint256",
              "name": "price",
              "type": "uint256"
            },
            {
              "internalType": "bytes32",
              "name": "proof",
              "type": "bytes32"
            },
            {
              "internalType": "address",
              "name": "owner",
              "type": "address"
            },
            {
              "internalType": "address",
              "name": "author",
              "type": "address"
            },
            {
              "internalType": "enum MusicApp.State",
              "name": "state",
              "type": "uint8"
            }
          ],
          "internalType": "struct MusicApp.Music",
          "name": "",
          "type": "tuple"
        }
      ],
      "stateMutability": "view",
      "type": "function"
    },
    {
      "inputs": [],
      "name": "getContractOwner",
      "outputs": [
        {
          "internalType": "address",
          "name": "",
          "type": "address"
        }
      ],
      "stateMutability": "view",
      "type": "function"
    }
  ],
  "bytecode": "0x608060405234801561001057600080fd5b506100203361002560201b60201c565b610069565b80600360006101000a81548173ffffffffffffffffffffffffffffffffffffffff021916908373ffffffffffffffffffffffffffffffffffffffff16021790555050565b6119b5806100786000396000f3fe6080604052600436106100915760003560e01c8063e6adc60411610059578063e6adc60414610170578063f0b4d6a1146101ad578063f2fde38b146101c9578063fcc959de146101f2578063fdecf2ea1461020e57610091565b8063442890d5146100965780634cff6532146100c15780635f4f8334146100fe5780638da5cb5b1461011a578063d888f3f414610145575b600080fd5b3480156100a257600080fd5b506100ab61022a565b6040516100b89190611241565b60405180910390f35b3480156100cd57600080fd5b506100e860048036038101906100e39190611297565b610254565b6040516100f59190611400565b60405180910390f35b61011860048036038101906101139190611509565b61038f565b005b34801561012657600080fd5b5061012f610710565b60405161013c9190611593565b60405180910390f35b34801561015157600080fd5b5061015a610736565b60405161016791906115bd565b60405180910390f35b34801561017c57600080fd5b50610197600480360381019061019291906115d8565b610740565b6040516101a49190611614565b60405180910390f35b6101c760048036038101906101c2919061162f565b61075d565b005b3480156101d557600080fd5b506101f060048036038101906101eb919061166f565b6108ad565b005b61020c6004803603810190610207919061162f565b610925565b005b61022860048036038101906102239190611509565b610aaf565b005b6000600360009054906101000a900473ffffffffffffffffffffffffffffffffffffffff16905090565b61025c611182565b6000808381526020019081526020016000206040518060e0016040529081600082015481526020016001820154815260200160028201548152602001600382015481526020016004820160009054906101000a900473ffffffffffffffffffffffffffffffffffffffff1673ffffffffffffffffffffffffffffffffffffffff1673ffffffffffffffffffffffffffffffffffffffff1681526020016005820160009054906101000a900473ffffffffffffffffffffffffffffffffffffffff1673ffffffffffffffffffffffffffffffffffffffff1673ffffffffffffffffffffffffffffffffffffffff1681526020016005820160149054906101000a900460ff166002811115610372576103716112fb565b5b6002811115610384576103836112fb565b5b815250509050919050565b600085336040516020016103a4929190611705565b6040516020818303038152906040528051906020012090506103c581611063565b156104ba57600260008083815260200190815260200160002060050160146101000a81548160ff02191690836002811115610403576104026112fb565b5b021790555060008273ffffffffffffffffffffffffffffffffffffffff163460405161042e90611788565b60006040518083038185875af1925050503d806000811461046b576040519150601f19603f3d011682016040523d82523d6000602084013e610470565b606091505b50509050806104b4576040517f08c379a00000000000000000000000000000000000000000000000000000000081526004016104ab906117fa565b60405180910390fd5b50610708565b6000600260008154809291906104cf90611849565b9190505590508160016000838152602001908152602001600020819055506040518060e001604052808281526020018781526020013481526020018681526020013373ffffffffffffffffffffffffffffffffffffffff1681526020018573ffffffffffffffffffffffffffffffffffffffff16815260200160028081111561055b5761055a6112fb565b5b8152506000808481526020019081526020016000206000820151816000015560208201518160010155604082015181600201556060820151816003015560808201518160040160006101000a81548173ffffffffffffffffffffffffffffffffffffffff021916908373ffffffffffffffffffffffffffffffffffffffff16021790555060a08201518160050160006101000a81548173ffffffffffffffffffffffffffffffffffffffff021916908373ffffffffffffffffffffffffffffffffffffffff16021790555060c08201518160050160146101000a81548160ff02191690836002811115610651576106506112fb565b5b021790555090505060008373ffffffffffffffffffffffffffffffffffffffff163460405161067f90611788565b60006040518083038185875af1925050503d80600081146106bc576040519150601f19603f3d011682016040523d82523d6000602084013e6106c1565b606091505b5050905080610705576040517f08c379a00000000000000000000000000000000000000000000000000000000081526004016106fc906117fa565b60405180910390fd5b50505b505050505050565b600360009054906101000a900473ffffffffffffffffffffffffffffffffffffffff1681565b6000600254905090565b600060016000838152602001908152602001600020549050919050565b61076782826110d0565b1561087757600160008084815260200190815260200160002060050160146101000a81548160ff021916908360028111156107a5576107a46112fb565b5b0217905550600080600084815260200190815260200160002060020154905060008273ffffffffffffffffffffffffffffffffffffffff16826040516107ea90611788565b60006040518083038185875af1925050503d8060008114610827576040519150601f19603f3d011682016040523d82523d6000602084013e61082c565b606091505b5050905080610870576040517f08c379a0000000000000000000000000000000000000000000000000000000008152600401610867906117fa565b60405180910390fd5b50506108a9565b6040517f06455d8a00000000000000000000000000000000000000000000000000000000815260040160405180910390fd5b5050565b6108b561022a565b73ffffffffffffffffffffffffffffffffffffffff163373ffffffffffffffffffffffffffffffffffffffff1614610919576040517f5fc483c500000000000000000000000000000000000000000000000000000000815260040160405180910390fd5b6109228161113e565b50565b61092f82826110d0565b15610a7957600080600084815260200190815260200160002060050160146101000a81548160ff0219169083600281111561096d5761096c6112fb565b5b0217905550600060646005600080868152602001908152602001600020600201546109989190611891565b6109a2919061191a565b90506000600360009054906101000a900473ffffffffffffffffffffffffffffffffffffffff1673ffffffffffffffffffffffffffffffffffffffff16826040516109ec90611788565b60006040518083038185875af1925050503d8060008114610a29576040519150601f19603f3d011682016040523d82523d6000602084013e610a2e565b606091505b5050905080610a72576040517f08c379a0000000000000000000000000000000000000000000000000000000008152600401610a69906117fa565b60405180910390fd5b5050610aab565b6040517f06455d8a00000000000000000000000000000000000000000000000000000000815260040160405180910390fd5b5050565b60008533604051602001610ac4929190611705565b604051602081830303815290604052805190602001209050610ae581611063565b15610cf057600080600083815260200190815260200160002060050160146101000a81548160ff02191690836002811115610b2357610b226112fb565b5b021790555060006064600534610b399190611891565b610b43919061191a565b34610b4e919061194b565b905060006064600534610b619190611891565b610b6b919061191a565b905060008473ffffffffffffffffffffffffffffffffffffffff1683604051610b9390611788565b60006040518083038185875af1925050503d8060008114610bd0576040519150601f19603f3d011682016040523d82523d6000602084013e610bd5565b606091505b505090506000600360009054906101000a900473ffffffffffffffffffffffffffffffffffffffff1673ffffffffffffffffffffffffffffffffffffffff1683604051610c2190611788565b60006040518083038185875af1925050503d8060008114610c5e576040519150601f19603f3d011682016040523d82523d6000602084013e610c63565b606091505b5050905081610ca7576040517f08c379a0000000000000000000000000000000000000000000000000000000008152600401610c9e906117fa565b60405180910390fd5b80610ce7576040517f08c379a0000000000000000000000000000000000000000000000000000000008152600401610cde906117fa565b60405180910390fd5b5050505061105b565b600060026000815480929190610d0590611849565b91905055905081600160008381526020019081526020016000208190555060008590506040518060e001604052808381526020018881526020013481526020018281526020013373ffffffffffffffffffffffffffffffffffffffff1681526020018673ffffffffffffffffffffffffffffffffffffffff16815260200160006002811115610d9757610d966112fb565b5b8152506000808581526020019081526020016000206000820151816000015560208201518160010155604082015181600201556060820151816003015560808201518160040160006101000a81548173ffffffffffffffffffffffffffffffffffffffff021916908373ffffffffffffffffffffffffffffffffffffffff16021790555060a08201518160050160006101000a81548173ffffffffffffffffffffffffffffffffffffffff021916908373ffffffffffffffffffffffffffffffffffffffff16021790555060c08201518160050160146101000a81548160ff02191690836002811115610e8d57610e8c6112fb565b5b021790555090505060006064600534610ea69190611891565b610eb0919061191a565b34610ebb919061194b565b905060006064600534610ece9190611891565b610ed8919061191a565b905060008673ffffffffffffffffffffffffffffffffffffffff1683604051610f0090611788565b60006040518083038185875af1925050503d8060008114610f3d576040519150601f19603f3d011682016040523d82523d6000602084013e610f42565b606091505b505090506000600360009054906101000a900473ffffffffffffffffffffffffffffffffffffffff1673ffffffffffffffffffffffffffffffffffffffff1683604051610f8e90611788565b60006040518083038185875af1925050503d8060008114610fcb576040519150601f19603f3d011682016040523d82523d6000602084013e610fd0565b606091505b5050905081611014576040517f08c379a000000000000000000000000000000000000000000000000000000000815260040161100b906117fa565b60405180910390fd5b80611054576040517f08c379a000000000000000000000000000000000000000000000000000000000815260040161104b906117fa565b60405180910390fd5b5050505050505b505050505050565b60003373ffffffffffffffffffffffffffffffffffffffff1660008084815260200190815260200160002060040160009054906101000a900473ffffffffffffffffffffffffffffffffffffffff1673ffffffffffffffffffffffffffffffffffffffff16149050919050565b60008173ffffffffffffffffffffffffffffffffffffffff1660008085815260200190815260200160002060040160009054906101000a900473ffffffffffffffffffffffffffffffffffffffff1673ffffffffffffffffffffffffffffffffffffffff1614905092915050565b80600360006101000a81548173ffffffffffffffffffffffffffffffffffffffff021916908373ffffffffffffffffffffffffffffffffffffffff16021790555050565b6040518060e0016040528060008152602001600081526020016000815260200160008019168152602001600073ffffffffffffffffffffffffffffffffffffffff168152602001600073ffffffffffffffffffffffffffffffffffffffff168152602001600060028111156111fa576111f96112fb565b5b81525090565b600073ffffffffffffffffffffffffffffffffffffffff82169050919050565b600061122b82611200565b9050919050565b61123b81611220565b82525050565b60006020820190506112566000830184611232565b92915050565b600080fd5b6000819050919050565b61127481611261565b811461127f57600080fd5b50565b6000813590506112918161126b565b92915050565b6000602082840312156112ad576112ac61125c565b5b60006112bb84828501611282565b91505092915050565b6000819050919050565b6112d7816112c4565b82525050565b6112e681611261565b82525050565b6112f581611220565b82525050565b7f4e487b7100000000000000000000000000000000000000000000000000000000600052602160045260246000fd5b6003811061133b5761133a6112fb565b5b50565b600081905061134c8261132a565b919050565b600061135c8261133e565b9050919050565b61136c81611351565b82525050565b60e08201600082015161138860008501826112ce565b50602082015161139b60208501826112ce565b5060408201516113ae60408501826112ce565b5060608201516113c160608501826112dd565b5060808201516113d460808501826112ec565b5060a08201516113e760a08501826112ec565b5060c08201516113fa60c0850182611363565b50505050565b600060e0820190506114156000830184611372565b92915050565b60007fffffffffffffffffffffffffffffffff0000000000000000000000000000000082169050919050565b6114508161141b565b811461145b57600080fd5b50565b60008135905061146d81611447565b92915050565b61147c816112c4565b811461148757600080fd5b50565b60008135905061149981611473565b92915050565b6114a881611220565b81146114b357600080fd5b50565b6000813590506114c58161149f565b92915050565b60006114d682611200565b9050919050565b6114e6816114cb565b81146114f157600080fd5b50565b600081359050611503816114dd565b92915050565b600080600080600060a086880312156115255761152461125c565b5b60006115338882890161145e565b95505060206115448882890161148a565b945050604061155588828901611282565b9350506060611566888289016114b6565b9250506080611577888289016114f4565b9150509295509295909350565b61158d816114cb565b82525050565b60006020820190506115a86000830184611584565b92915050565b6115b7816112c4565b82525050565b60006020820190506115d260008301846115ae565b92915050565b6000602082840312156115ee576115ed61125c565b5b60006115fc8482850161148a565b91505092915050565b61160e81611261565b82525050565b60006020820190506116296000830184611605565b92915050565b600080604083850312156116465761164561125c565b5b600061165485828601611282565b9250506020611665858286016114f4565b9150509250929050565b6000602082840312156116855761168461125c565b5b6000611693848285016114b6565b91505092915050565b6000819050919050565b6116b76116b28261141b565b61169c565b82525050565b60008160601b9050919050565b60006116d5826116bd565b9050919050565b60006116e7826116ca565b9050919050565b6116ff6116fa82611220565b6116dc565b82525050565b600061171182856116a6565b60108201915061172182846116ee565b6014820191508190509392505050565b600081905092915050565b7f2000000000000000000000000000000000000000000000000000000000000000600082015250565b6000611772600183611731565b915061177d8261173c565b600182019050919050565b600061179382611765565b9150819050919050565b600082825260208201905092915050565b7f204661696c656420746f2073656e642045746865720000000000000000000000600082015250565b60006117e460158361179d565b91506117ef826117ae565b602082019050919050565b60006020820190508181036000830152611813816117d7565b9050919050565b7f4e487b7100000000000000000000000000000000000000000000000000000000600052601160045260246000fd5b6000611854826112c4565b91507fffffffffffffffffffffffffffffffffffffffffffffffffffffffffffffffff82036118865761188561181a565b5b600182019050919050565b600061189c826112c4565b91506118a7836112c4565b9250817fffffffffffffffffffffffffffffffffffffffffffffffffffffffffffffffff04831182151516156118e0576118df61181a565b5b828202905092915050565b7f4e487b7100000000000000000000000000000000000000000000000000000000600052601260045260246000fd5b6000611925826112c4565b9150611930836112c4565b9250826119405761193f6118eb565b5b828204905092915050565b6000611956826112c4565b9150611961836112c4565b9250828210156119745761197361181a565b5b82820390509291505056fea264697066735822122057cc1093ea7e1788847e42f9484575edaf11f91131a704c3ee6288600d6ce37a64736f6c634300080d0033",
  "immutableReferences": {},
  "source": "//SPDX-License-Identifier: MIT\r\n\r\npragma solidity ^0.8.0;\r\n\r\ncontract MusicApp {\r\n    enum State {\r\n        Purchased,\r\n        Rejected,\r\n        Pending\r\n    }\r\n\r\n    struct Music {\r\n        uint256 id;\r\n        uint256 musicID;\r\n        uint256 price;\r\n        bytes32 proof;\r\n        address owner;\r\n        address author;\r\n        State state;\r\n    }\r\n\r\n    // mapping of musicHash to Music data\r\n    mapping(bytes32 => Music) private ownedMusic;\r\n\r\n    // mapping of musicID to MusicHash\r\n    mapping(uint256 => bytes32) private ownedMusicHash;\r\n\r\n    uint256 private totalOwnedMusic;\r\n\r\n    address payable public owner;\r\n\r\n    constructor() {\r\n        setContractOwner(msg.sender);\r\n    }\r\n\r\n    /// Music has already a Owner!\r\n    error MusicHasOwner();\r\n\r\n    /// Music proof not Matched\r\n    error MusicNotMatch();\r\n\r\n    /// Only owner has access!\r\n    error OnlyOwner();\r\n\r\n    modifier onlyOwner() {\r\n        if (msg.sender != getContractOwner()) {\r\n            revert OnlyOwner();\r\n        }\r\n        _;\r\n    }\r\n\r\n    event Sent(address from, address to, uint256 amount);\r\n\r\n    function purchaseMusic(\r\n        bytes16 musicID,\r\n        uint256 musID,\r\n        bytes32 proof,\r\n        address musician,\r\n        address payable toReceiver\r\n    ) external payable {\r\n        //proof = 0x0000000000000000000000000000313000000000000000000000000000003130\r\n        // Music id = 10\r\n        // 0x00000000000000000000000000003130\r\n        // 0x5B38Da6a701c568545dCfcB03FcB875f56beddC4\r\n\r\n        // 000000000000000000000000000031305B38Da6a701c568545dCfcB03FcB875f56beddC4\r\n        //keccak256 = 0xc4eaa3558504e2baa2669001b43f359b8418b44a4477ff417b4b007d7cc86e37\r\n\r\n        bytes32 musicHash = keccak256(abi.encodePacked(musicID, msg.sender));\r\n\r\n        if (hasMusicOwnership(musicHash)) {\r\n            ownedMusic[musicHash].state = State.Purchased;\r\n\r\n            uint256 priceToArtist = msg.value - ((msg.value * 5) / 100);\r\n\r\n            uint256 priceToStake = ((msg.value * 5) / 100);\r\n\r\n            (bool sent, ) = toReceiver.call{value: priceToArtist}(\" \");\r\n            (bool sent2, ) = owner.call{value: priceToStake}(\" \");\r\n\r\n            require(sent, \" Failed to send Ether\");\r\n            require(sent2, \" Failed to send Ether\");\r\n        } else {\r\n            uint256 id = totalOwnedMusic++;\r\n\r\n            ownedMusicHash[id] = musicHash;\r\n\r\n            bytes32 proof1 = proof;\r\n\r\n            ownedMusic[musicHash] = Music({\r\n                id: id,\r\n                musicID: musID,\r\n                price: msg.value,\r\n                proof : proof1,\r\n                owner: msg.sender,\r\n                author: musician,\r\n                state: State.Purchased\r\n            });\r\n\r\n            uint256 priceToArtist = msg.value - ((msg.value * 5) / 100);\r\n\r\n            uint256 priceToStake = ((msg.value * 5) / 100);\r\n\r\n            (bool sent, ) = toReceiver.call{value: priceToArtist}(\" \");\r\n            (bool sent2, ) = owner.call{value: priceToStake}(\" \");\r\n\r\n            require(sent, \" Failed to send Ether\");\r\n            require(sent2, \" Failed to send Ether\");\r\n        }\r\n    }\r\n\r\n    function makeOffer(\r\n        bytes16 musicID,\r\n        uint256 musID,\r\n        bytes32 proof,\r\n        address musician,\r\n        address payable toReceiver\r\n    ) external payable {\r\n        bytes32 musicHash = keccak256(abi.encodePacked(musicID, msg.sender));\r\n\r\n        if (hasMusicOwnership(musicHash)) {\r\n            ownedMusic[musicHash].state = State.Pending;\r\n\r\n            (bool sent, ) = toReceiver.call{value: msg.value}(\" \");\r\n\r\n            require(sent, \" Failed to send Ether\");\r\n        } else {\r\n            uint256 id = totalOwnedMusic++;\r\n\r\n            ownedMusicHash[id] = musicHash;\r\n\r\n            ownedMusic[musicHash] = Music({\r\n                id: id,\r\n                musicID: musID,\r\n                price: msg.value,\r\n                proof: proof,\r\n                owner: msg.sender,\r\n                author: musician,\r\n                state: State.Pending\r\n            });\r\n\r\n            (bool sent, ) = toReceiver.call{value: msg.value}(\" \");\r\n\r\n            require(sent, \" Failed to send Ether\");\r\n        }\r\n    }\r\n\r\n    function acceptOffer(bytes32 musicHash, address payable toReceive)\r\n        external\r\n        payable\r\n    {\r\n        if (hasMusicOfferOwnership(musicHash, toReceive)) {\r\n            ownedMusic[musicHash].state = State.Purchased;\r\n\r\n            uint256 priceToStake = ((ownedMusic[musicHash].price * 5) / 100);\r\n\r\n            (bool sent, ) = owner.call{value: priceToStake}(\" \");\r\n\r\n            require(sent, \" Failed to send Ether\");\r\n        } else {\r\n            revert MusicNotMatch();\r\n        }\r\n    }\r\n\r\n    function rejectOffer(bytes32 musicHash, address payable toReceive)\r\n        external\r\n        payable\r\n    {\r\n        if (hasMusicOfferOwnership(musicHash, toReceive)) {\r\n            ownedMusic[musicHash].state = State.Rejected;\r\n\r\n            uint256 refundPrice = ownedMusic[musicHash].price;\r\n\r\n            (bool sent, ) = toReceive.call{value: refundPrice}(\" \");\r\n\r\n            require(sent, \" Failed to send Ether\");\r\n        } else {\r\n            revert MusicNotMatch();\r\n        }\r\n    }\r\n\r\n    function transferOwnership(address newOwner) external onlyOwner {\r\n        setContractOwner(newOwner);\r\n    }\r\n\r\n    function getMusicCount() external view returns (uint256) {\r\n        return totalOwnedMusic;\r\n    }\r\n\r\n    function getMusicAtIndex(uint256 index) external view returns (bytes32) {\r\n        return ownedMusicHash[index];\r\n    }\r\n\r\n    function getMusicByHash(bytes32 musicHash)\r\n        external\r\n        view\r\n        returns (Music memory)\r\n    {\r\n        return ownedMusic[musicHash];\r\n    }\r\n\r\n    function getContractOwner() public view returns (address) {\r\n        return owner;\r\n    }\r\n\r\n    function setContractOwner(address newOwner) private {\r\n        owner = payable(newOwner);\r\n    }\r\n\r\n    function hasMusicOwnership(bytes32 musicHash) private view returns (bool) {\r\n        return ownedMusic[musicHash].owner == msg.sender;\r\n    }\r\n\r\n    function hasMusicOfferOwnership(bytes32 musicHash, address buyer)\r\n        private\r\n        view\r\n        returns (bool)\r\n    {\r\n        return ownedMusic[musicHash].owner == buyer;\r\n    }\r\n}\r\n",
  "sourcePath": "C:\\Web3.0\\lmusic\\contracts\\MusicApp.sol",
  "compiler": {
    "name": "solc",
    "version": "0.8.13+commit.abaa5c0e.Emscripten.clang"
  },
  "schemaVersion": "3.4.6",
  "updatedAt": "2022-04-14T10:27:12.842Z",
  "devdoc": {
    "kind": "dev",
    "methods": {},
    "version": 1
  },
  "userdoc": {
    "errors": {
      "MusicHasOwner()": [
        {
          "notice": "Music has already a Owner!"
        }
      ],
      "MusicNotMatch()": [
        {
          "notice": "Music proof not Matched"
        }
      ],
      "OnlyOwner()": [
        {
          "notice": "Only owner has access!"
        }
      ]
    },
    "kind": "user",
    "methods": {},
    "version": 1
  }
}